:100000000C942D010C945E010C945E010C945E0125
:100010000C945E010C945E010C945E010C945E01E4
:100020000C945E010C945E010C945E010C945E01D4
:100030000C945E010C945E010C945E010C945E01C4
:100040000C945E010C945E010C945E010C945E01B4
:100050000C945E010C945E010C945E010C94880774
:100060000C945E010C94FC070C94D2070C945E0176
:100070000C945E010C945E010C945E010C945E0184
:100080000C945E010C945E010C945E010C945E0174
:100090000C945E010C945E010C945E010C94320889
:1000A0000C945E010C945E010C945E010C945E0154
:1000B0000C945E010C945E010C945E010C945E0144
:1000C0000C945E010C945E010C945E010C945E0134
:1000D0000C945E010C945E010C945E010C945E0124
:1000E0000C945E010C9493020C947F020C94C60154
:1000F0000C9419040C9495010C9490010C94D80163
:100100000C9426030C94C0010C94DC010C94EC03B9
:100110000C94BC010C94CE010C94E2030C94D40119
:100120000C94E5030C94DF030C94A1020C94E201FF
:100130000C942F050C94A7010C94CA010C94AB01EC
:100140000C94AF010C94E6010C9440060C94D90277
:100150000C9470020C94B3010C94B6010C947703C8
:100160000C94DE030C9443020C945209000022000C
:10017000250028002B002E00310034000201000071
:10018000050108010B010505050507050808080814
:10019000020202020A0A080804040404010101011F
:1001A000010101010303030303030303040707071A
:1001B0000C0C0C0C0C0C0C0C0202020206060606BF
:1001C000060606060B0B0B0B0B0B0B0B010210208C
:1001D000200808102040102040800201020108047D
:1001E0000201010204081020408080402010080411
:1001F000020180040201804020100804020108046A
:1002000002010102040810204080010204081020AD
:10021000408000000A0B02090C0D0E0807030401C0
:1002200000000000000000000000000000000000CE
:10023000000000000000000000000000000012119B
:10024000100000000000000000000000000000009E
:100250000000000000000000520911241FBECFEF73
:10026000D1E2DEBFCDBF00E00CBF23E0A2EAB2E0E6
:1002700001C01D92A93FB207E1F712E0A0E0B2E091
:10028000E4EFFAE100E00BBF02C007900D92A23A42
:10029000B107D9F711E0CDE2D1E000E006C0219727
:1002A0000109802FFE010E945A0BCC32D10780E059
:1002B0000807A9F70E949A090C94780D0C94000085
:1002C000282F30E0F901EE5EFD4F9491F901E453DF
:1002D000FE4F44912A573E4FF9012491222309F4FD
:1002E00035C0992311F191509231F8F4E92FF0E0E3
:1002F0008827E258FE4F8F4F0C945A0BAF01B30181
:100300009001A701AB019501B601BC01C001C60176
:10031000CA01CE01D401D8019501DC01E201E60158
:10032000809180008F7780938000E22FF0E0EE0FC5
:10033000FF1FE459FE4FA591B4918FB7F894EC914B
:10034000611148C040954E234C938FBF0895809112
:1003500080008F7DE8CF80918000877FE4CF84B5D7
:100360008F7784BDE2CF84B58F7DFBCF8091B000C5
:100370008F778093B000D9CF8091B0008F7DF9CF77
:10038000809190008F7780939000CFCF80919000E4
:100390008F7DF9CF80919000877FF5CF8091A0006D
:1003A0008F778093A000C1CF8091A0008F7DF9CF7F
:1003B0008091A000877FF5CF809120018F77809377
:1003C0002001B3CF809120018F7DF9CF8091200152
:1003D000877FF5CF4E2BB8CF3FB7F89480913C0381
:1003E00090913D03A0913E03B0913F0326B5A89B99
:1003F00005C02F3F19F00196A11DB11D3FBFBA2FB7
:10040000A92F982F8827BC01CD01620F711D811D76
:10041000911D42E0660F771F881F991F4A95D1F7FB
:1004200008958F929F92AF92BF92CF92DF92EF92F8
:10043000FF924B015C010E94EC016B017C010E9468
:10044000EC016C197D098E099F09683E7340810596
:100450009105A8F321E0821A9108A108B10888EE5D
:10046000C80E83E0D81EE11CF11C81149104A10484
:10047000B10429F7FF90EF90DF90CF90BF90AF903D
:100480009F908F900895AF92BF92CF92DF92EF929C
:10049000FF920F931F93CF93DF936C017B018B012E
:1004A000040F151FEB015E01AE18BF08C017D1077E
:1004B00059F06991D601ED91FC910190F081E02D08
:1004C000C6011995892B79F7C501DF91CF911F914D
:1004D0000F91FF90EF90DF90CF90BF90AF90089575
:1004E000FC01538D448D252F30E0842F90E0821B3A
:1004F000930B541710F0CF96089501970895FC01BF
:10050000918D828D981761F0A28DAE0FBF2FB11D16
:100510005D968C91928D9F5F9F73928F90E008956E
:100520008FEF9FEF0895FC01918D828D981731F028
:10053000828DE80FF11D858D90E008958FEF9FEF7C
:100540000895FC01918D228D892F90E0805C9F4F52
:10055000821B91098F739927089580E493E00E948C
:10056000A10221E0892B09F420E0822F0895FC01EB
:10057000A48DA80FB92FB11DA35ABF4F2C91848D04
:1005800090E001968F739927848FA689B7892C9361
:10059000A089B1898C91837080648C93938D848DB4
:1005A000981306C00288F389E02D80818F7D8083B7
:1005B0000895EF92FF920F931F93CF93DF93EC0177
:1005C00081E0888F9B8D8C8D98131AC0E889F989FA
:1005D000808185FF15C09FB7F894EE89FF896083FD
:1005E000E889F98980818370806480839FBF81E07E
:1005F00090E0DF91CF911F910F91FF90EF900895C0
:10060000F62E0B8D10E00F5F1F4F0F731127E02E9A
:100610008C8D8E110CC00FB607FCFACFE889F989D2
:10062000808185FFF5CFCE010E94B702F1CFEB8D1F
:10063000EC0FFD2FF11DE35AFF4FF0829FB7F894A6
:100640000B8FEA89FB8980818062CFCFCF93DF93C4
:10065000EC01888D8823B9F0AA89BB89E889F989DA
:100660008C9185FD03C0808186FD0DC00FB607FC0F
:10067000F7CF8C9185FFF2CF808185FFEDCFCE0142
:100680000E94B702E9CFDF91CF91089580E090E01A
:10069000892B29F00E94AD0281110E94000080E0A8
:1006A00090E0892B49F080E090E0892B29F00E94AE
:1006B000000081110E94000080E090E0892B49F049
:1006C00080E090E0892B29F00E94000081110E94B7
:1006D000000080E090E0892B49F080E090E0892BD9
:1006E00029F00E94000081110C94000008950895E3
:1006F0001F93CF93DF93C1E0C093A302882399F1A6
:10070000D091B8001091BA008091BC008A7B809390
:10071000BC0060E084E10E94600160E085E10E942D
:10072000600110920D03C0930C031092E70261E088
:1007300084E10E94600161E085E10E946001809196
:10074000B9008E7F8093B9008091B9008D7F80932E
:10075000B90088E48093B80085E48093BC001093CE
:10076000BA00D093B800DF91CF911F9108952091E6
:10077000C402260F3327331F21323105ECF42091B8
:100780000D03FC0190E080E0243069F082E00895E0
:10079000A091C4022191AC014C555D4FA40FB52F1F
:1007A000B11D2C930196861798F38091C402680FAF
:1007B0006093C40280E0089581E0089508958FEF6A
:1007C0009FEF08958FEF9FEF08958091A20290E030
:1007D0009195819591090895CF92DF92EF92FF92C2
:1007E0000F931F93CF93DF937C01CB018A0120915C
:1007F0001303222389F0EB016B01C40ED51ECC1527
:10080000DD0569F06991D701ED91FC910190F081CE
:10081000E02DC7011995F3CF642F0E94B703C801DB
:10082000DF91CF911F910F91FF90EF90DF90CF90CC
:100830000895CF93DF931F92CDB7DEB769832091E0
:1008400013032223F9F020913603203258F021E0DF
:1008500030E0FC013383228390E080E00F90DF9151
:10086000CF91089580911403E82FF0E0EB5EFC4FE8
:10087000998190838F5F809314038093360381E086
:1008800090E0ECCF61E0CE0101960E94B703F7CF74
:10089000CF92DF92EF92FF920F931F93CF93DF934C
:1008A000FC01C48121E020931303C093350310920F
:1008B0001403109236038385682B8DED93E00E941C
:1008C0001904D0913603D13208F092C00E94EC0195
:1008D0006B017C0180910D03811165C082E08093E2
:1008E0000D0381E080930C038FEF80930B03109234
:1008F0000A03D0930903A5E1B3E0E9EEF2E080E05A
:10090000D81385C01092E8028091E802CC0FC82B62
:10091000C093E8028091E702813009F07CC0109218
:10092000E7020E94EC016B017C018091E802809358
:10093000BB0080910F0390911003A0911103B0911F
:100940001203892B8A2B8B2B99F00E94EC010091CA
:100950000F031091100320911103309112036C19B1
:100960007D098E099F090617170728073907E0F147
:100970008091BC0083FDD9CF85EC8093BC000E94A0
:10098000EC016B017C0180910D03823009F445C0BC
:1009900080910B038F3F61F180910B03803241F115
:1009A00080910B0325C080910F0390911003A091BB
:1009B0001103B0911203892B8A2B8B2B09F48ACF58
:1009C0000E94EC0100910F0310911003209111037C
:1009D000309112036C197D098E099F0906171707BC
:1009E0002807390708F076CF80910E030E9478031C
:1009F000109214031092360310921303DF91CF91DB
:100A00001F910F91FF90EF90DF90CF9008959D91EF
:100A100091938F5F75CF85EEB0CF80910F0390914A
:100A20001003A0911103B0911203892B8A2B8B2BF9
:100A300009F4A9CF0E94EC0100910F03109110035B
:100A400020911103309112036C197D098E099F09C1
:100A5000061717072807390708F095CFC5CF90E08C
:100A600080E00895FB0101900020E9F73197AF0184
:100A7000461B570BDC01ED91FC910280F381E02DC8
:100A800019940F931F93CF93DF93EC018881998181
:100A9000009759F02A813B812617370730F081E013
:100AA000DF91CF911F910F9108958B016F5F7F4F61
:100AB0000E94870C009759F0998388831B830A83CF
:100AC0002C813D81232B59F7FC011082E8CF80E077
:100AD000E7CFCF93DF93EC0188819981009711F0E4
:100AE0000E94FE0B198218821D821C821B821A82B0
:100AF000DF91CF910895EF92FF920F931F93CF93C1
:100B0000DF938C017B01EB0109900020E9F721972D
:100B1000C61BD70BBE010E944105811109C0C80147
:100B2000DF91CF911F910F91FF90EF900C94690589
:100B3000F801D583C483B70180819181DF91CF9182
:100B40001F910F91FF90EF900C94710DEF92FF9217
:100B50000F931F93CF93DF93EC01FB01E080F180B3
:100B6000E114F10411F10481158101151105A9F0B9
:100B70008C819D81080F191FB801CE010E9441058B
:100B8000882399F0288139818C819D81B701820F5A
:100B9000931F0E94710D1D830C83CE01DF91CF91B5
:100BA0001F910F91FF90EF900895CE010E9469056B
:100BB000F4CFFC0180819181009711F00C94FE0B21
:100BC00008950F931F93CF938C01C62F0E94480462
:100BD0006C2F6460C8010E9448046C2F6B7FC801B1
:100BE0000E94480483EC90E00197F1F7CF911F91A8
:100BF0000F9108950F931F93CF93DF938C01D62FFE
:100C0000C42F607F642B0E94E10580E1D89FB00172
:100C100011246C2BC801DF91CF911F910F910C947F
:100C2000E105CF93DF9300D000D01F921F92CDB784
:100C3000DEB798E0E6E0F2E0DE01119601900D9259
:100C40009A95E1F79091F103981708F48FEF90E0EF
:100C5000880F991F21E030E02C0F3D1F820F931F5A
:100C6000FC016081606840E089EE93E028960FB651
:100C7000F894DEBF0FBECDBFDF91CF910C94FA0583
:100C800041E00E94FA0581E090E0089585ED8093AF
:100C9000BC0080910F0390911003A0911103B091BB
:100CA00012030796A11DB11D23E0B695A795979550
:100CB00087952A95D1F72091BC0024FD03C010929E
:100CC0000D03089540910F0350911003609111039B
:100CD00070911203452B462B472B69F30097A10512
:100CE000B10541F02AE22A95F1F700C00197A10968
:100CF000B109E1CF80910E030C9478038F929F92FB
:100D0000AF92BF92CF92DF92EF92FF920F931F9319
:100D1000CF93DF93CDB7DEB7A7970FB6F894DEBFBA
:100D20000FBECDBF5C014B0140E061E089EE93E076
:100D30000E94FA058BE39FE10197F1F780E00E94A2
:100D40001106F501448155816081718189EE93E03E
:100D50000E94430281E00E9411066EE372E089EE78
:100D600093E00E9432056401092C000CEE08FF0894
:100D7000F7FEA7C041E06DE289EE93E00E94FA051C
:100D800022273327A9012C193D094E095F0919A211
:100D90008E010F5D1F4F9AE0C92ED12CE12CF12C52
:100DA000CA01B901A70196010E94380B605DF801E4
:100DB00062938F01211531054105510589F7011510
:100DC000110529F0B80189EE93E00E9432051BA2BB
:100DD0001AA21DA21CA21FA21EA24AE0CE010196C9
:100DE0007C01BC01C4010E94030BF70101900020AB
:100DF000E9F731978F010E191F09B801CE018296CC
:100E00000E944105811178C0CE0182960E94690539
:100E10001A8219821C821B821E821D8268E472E083
:100E2000C7010E947B05B501C7010E94A6058C0180
:100E3000FC01C480D580FEE0CF0ED11CB6010E941B
:100E40004105882309F460C0F80120813181848143
:100E5000958161E572E0820F931F0E94710DF80188
:100E6000D582C482BE016E5D7F4FC8010E94A60577
:100E7000FC01448155816081718180E493E00E948E
:100E8000430260E672E080E493E00E943205C7010D
:100E90000E94D905CE0182960E94D905A7960FB669
:100EA000F894DEBF0FBECDBFDF91CF911F910F91A0
:100EB000FF90EF90DF90CF90BF90AF909F908F907A
:100EC0000895A701960119A28E010F5D1F4F8AE0B8
:100ED000C82ED12CE12CF12CCA01B901A701960131
:100EE0000E94380B605DF80162938F012115310576
:100EF0004105510589F763CF1FA30EA3B7018AA14E
:100F00009BA10E94710D84CFC8010E946905AACFE0
:100F10001F920F920FB60F9211242F933F938F932E
:100F20009F93AF93BF938091380390913903A09121
:100F30003A03B0913B033091370323E0230F2D3761
:100F400058F50196A11DB11D2093370380933803F6
:100F500090933903A0933A03B0933B0380913C03F1
:100F600090913D03A0913E03B0913F030196A11DD6
:100F7000B11D80933C0390933D03A0933E03B09337
:100F80003F03BF91AF919F918F913F912F910F9010
:100F90000FBE0F901F90189526E8230F0296A11DF3
:100FA000B11DD2CF1F920F920FB60F9211240BB624
:100FB0000F922F933F934F935F936F937F938F93F2
:100FC0009F93AF93BF93EF93FF9380E493E00E94CE
:100FD000B702FF91EF91BF91AF919F918F917F9158
:100FE0006F915F914F913F912F910F900BBE0F909A
:100FF0000FBE0F901F9018951F920F920FB60F9271
:1010000011240BB60F922F938F939F93EF93FF931F
:10101000E0915003F09151038081E0915603F091EB
:10102000570382FD1DC09081809159038F5F8F739C
:1010300020915A03821741F0E0915903F0E0E05CFF
:10104000FC4F958F80935903FF91EF919F918F9162
:101050002F910F900BBE0F900FBE0F901F90189501
:101060008081F2CF1F920F920FB60F9211240BB610
:101070000F922F933F934F935F936F937F938F9331
:101080009F93AF93BF93EF93FF938091B900887FB5
:10109000803609F44DC008F040C0883209F4A7C07A
:1010A00028F5803109F49BC0C8F4882309F4F7C0FF
:1010B000883009F494C0FF91EF91BF91AF919F9157
:1010C0008F917F916F915F914F913F912F910F90F1
:1010D0000BBE0F900FBE0F901F901895883109F42A
:1010E00086C0803241F780930B0314C0803409F42A
:1010F0009BC040F48033B9F38833E9F680930B0347
:1011000085ECAEC0803509F483C0883509F494C0FD
:10111000883489F60E944606CECF883909F48AC001
:1011200038F5883729F050F4883611F0803719F6F1
:1011300083E080930D031092E60255C0883809F4CD
:1011400079C0803919F0803809F0B5CF8091E60276
:10115000803208F06FC0E091E60281E08E0F80934C
:10116000E6028091BB00F0E0EA53FD4F80833BC074
:10117000803B39F0D0F4803A09F477C0883A09F01E
:101180009ACF84E080930D031092C5021092C4029E
:10119000F0E0E0E019958091C40281110FC081E078
:1011A0008093C4021092A40209C0803C09F4A8CF25
:1011B000883C09F4A5CF883B09F07DCFE091C502BA
:1011C00081E08E0F8093C502F0E0EC55FD4F8081E9
:1011D0008093BB009091C5028091C40229C0809188
:1011E000E8028093BB0085EC8093BC0064CF9091B3
:1011F0000A0380910903981758F5E0910A0381E0EA
:101200008E0F80930A03F0E0E751FD4F8081E9CF14
:10121000E0910A0381E08E0F80930A038091BB0066
:10122000F0E0E751FD4F808390910A03809109031C
:101230009817C8F285E8D8CFE0910A0381E08E0FB5
:1012400080930A038091BB00F0E0E751FD4F80835B
:1012500080910C0381115ECF81E08093E70284EAE4
:101260008093BC0010920D0326CF85EC8093BC00C8
:1012700010920D038091E602803230F4E091E60294
:10128000F0E0EA53FD4F10826091E60270E086ECD8
:1012900092E0F0E0E0E019951092E6020CCF109297
:1012A0000B0338CFE0E4F3E01382128288EE93E080
:1012B000A0E0B0E084839583A683B78322E132E087
:1012C0003183208325EC30E03587248724EC30E01F
:1012D0003787268720EC30E0318B208B21EC30E003
:1012E000338B228B22EC30E0358B248B26EC30E0E4
:1012F000378B268B118E128E138E148EEDEDF3E04C
:101300001382128284839583A683B78384E292E05A
:1013100091838083E9EEF3E01382128286E392E008
:101320009183808387E2848380E1818782E0828762
:1013300013860895CF93DF9300D000D0CDB7DEB7EA
:10134000789484B5826084BD84B5816084BD85B5A0
:10135000826085BD85B5816085BD80916E008160AC
:1013600080936E0010928100809181008260809352
:101370008100809181008160809381008091800054
:101380008160809380008091B10084608093B1007F
:101390008091B00081608093B00080919100826064
:1013A0008093910080919100816080939100809161
:1013B00090008160809390008091A1008260809372
:1013C000A1008091A10081608093A1008091A00084
:1013D00081608093A000809121018260809321012F
:1013E00080912101816080932101809120018160A1
:1013F0008093200180917A00846080937A008091AC
:101400007A00826080937A0080917A008160809374
:101410007A0080917A00806880937A001092C100EF
:101420008091EE0388608093EE0382E0F82EF092C4
:10143000F10362E370E080E090E00E9411026091AD
:10144000F40389EE93E00E94480468EE73E080E0C4
:1014500090E00E94110260E389EE93E00E94E105B2
:101460000BE416E4C8010197F1F760E389EE93E01D
:101470000E94E105C8010197F1F760E389EE93E06E
:101480000E94E10583E592E00197F1F760E289EEC1
:1014900093E00E94E1056091EE03606240E089EE16
:1014A00093E00E94FA0584E08093EF0340E06CE053
:1014B00089EE93E00E94FA0540E061E089EE93E056
:1014C0000E94FA050BE31FE1C8010197F1F7F092C2
:1014D000F00340E066E089EE93E00E94FA0540E008
:1014E00062E089EE93E00E94FA05C8010197F1F7E6
:1014F00088E08093F40360E089EE93E00E94480462
:10150000E0915003F0915103F082E0914C03F0918F
:101510004D031082E0914E03F0914F038FEC8083D6
:1015200010925803E0915403F091550386E08083B4
:10153000E0915203F0915303808180618083E091B8
:101540005203F0915303808188608083E0915203BD
:10155000F0915303808180688083E0915203F09181
:10156000530380818F7D808380E00E94110663E6B3
:1015700072E089EE93E00E94320560ED77E080E052
:1015800090E00E94110290E4F92E80917B00877F09
:1015900080937B00F0927C0080917A00806480933D
:1015A0007A0080917A0086FDFCCF0091780010913E
:1015B00079001A8219821C821B821E821D8264E7B6
:1015C00072E0013283E0180744F464E872E0053FFA
:1015D00081E0180714F463E972E0CE0101960E94DD
:1015E0007B05B801CE0101960E947E06CE010196D0
:1015F0000E94D90568EE73E080E090E00E9411023D
:101600000E944603C2CFBB274A3031F4992322F40B
:10161000BDE2909581959F4F0C940F0BBB27FB016A
:101620005527AA27880F991FAA1FA41710F0A41BDB
:1016300083955051B9F7A05DAA3308F0A95DA19335
:10164000009779F7B111B1931192CB010C94280B4B
:10165000DC01FC01672F71917723E1F7329704C019
:101660007C916D9370836291AE17BF07C8F30895A4
:10167000A1E21A2EAA1BBB1BFD010DC0AA1FBB1F96
:10168000EE1FFF1FA217B307E407F50720F0A21B08
:10169000B30BE40BF50B661F771F881F991F1A9475
:1016A00069F760957095809590959B01AC01BD019F
:1016B000CF010895EE0FFF1F881F8BBF0790F69193
:1016C000E02D19940F931F93CF93DF9382309105F0
:1016D00010F482E090E0E091F703F091F80330E03D
:1016E00020E0B0E0A0E0309799F42115310509F42D
:1016F0004AC0281B390B24303105D8F58A819B81DB
:101700006115710589F1FB0193838283FE0111C08C
:10171000408151810281138148175907E0F0481731
:10172000590799F4109761F012960C93129713963B
:101730001C933296CF01DF91CF911F910F910895A5
:101740000093F7031093F803F4CF2115310551F0FE
:101750004217530738F0A901DB019A01BD01DF01EF
:10176000F801C1CFEF01F9CF9093F8038093F7030D
:10177000CDCFFE01E20FF31F8193919322503109E7
:1017800039832883D7CF2091F5033091F603232B9B
:1017900041F420910202309103023093F60320932A
:1017A000F50320910002309101022115310541F429
:1017B0002DB73EB74091040250910502241B350B12
:1017C000E091F503F091F603E217F307A0F42E1B66
:1017D0003F0B2817390778F0AC014E5F5F4F241795
:1017E000350748F04E0F5F1F5093F6034093F50303
:1017F000819391939FCFF0E0E0E09CCFCF93DF9374
:101800000097E9F0FC01329713821282A091F7034E
:10181000B091F803ED0130E020E01097A1F42081B1
:101820003181820F931F2091F5033091F603281721
:10183000390709F061C0F093F603E093F503DF91F7
:10184000CF910895EA01CE17DF07E8F54A815B8161
:101850009E0141155105B1F7E901FB83EA834991E6
:101860005991C40FD51FEC17FD0761F48081918158
:101870000296840F951FE901998388838281938161
:101880009B838A83F0E0E0E012968D919C91139700
:101890000097B9F52D913C911197CD010296820FD9
:1018A000931F2091F5033091F6032817390739F675
:1018B000309751F51092F8031092F703B093F603A6
:1018C000A093F503BCCFD383C28340815181840FA1
:1018D000951FC817D90761F44E5F5F4F88819981C2
:1018E000480F591F518340838A819B819383828350
:1018F0002115310509F0B0CFF093F803E093F70319
:101900009ECFFD01DC01C0CF13821282D7CF4F9250
:101910005F926F927F928F929F92AF92BF92CF927F
:10192000DF92EF92FF920F931F93CF93DF938C017F
:10193000009799F4CB01DF91CF911F910F91FF9008
:10194000EF90DF90CF90BF90AF909F908F907F905F
:101950006F905F904F900C94620BFC01E60FF71FA5
:101960009C0122503109E217F30708F4AEC0D901F7
:10197000CD91DC911197C617D70720F1C530D1055D
:1019800078F0CE0104978617970750F0C61BD70B47
:101990002297C193D1936D937C93CF010E94FE0B4C
:1019A000C801DF91CF911F910F91FF90EF90DF90D1
:1019B000CF90BF90AF909F908F907F906F905F90EF
:1019C0004F9008955B01AC1ABD0A4C018C0E9D1E10
:1019D000A091F703B091F803512C412CF12CE12C8C
:1019E000109731F58091F5039091F60388159905CC
:1019F00009F05CC04616570608F058C080910002F6
:101A000090910102009741F48DB79EB74091040276
:101A100050910502841B950BE817F90708F055C093
:101A2000F093F603E093F503F90171836083B8CF77
:101A30008D919C91119712966C90129713967C90B1
:101A40001397A815B90559F56C0142E0C40ED11CD5
:101A5000CA14DB0420F1AC014A195B09DA011296C1
:101A6000159780F06282738251834083D9016D9310
:101A70007C93E114F10471F0D7011396FC93EE937B
:101A800012978ECF22968C0F9D1FF9019183808330
:101A9000F301EFCFF093F803E093F70381CF4816FB
:101AA000590608F42C017D01D3019ACFCB010E9485
:101AB000620B7C01009749F0AE01B8010E94680DED
:101AC000C8010E94FE0B87016BCF10E000E068CFD9
:101AD000FB01DC0102C001900D9241505040D8F74B
:101AE0000895FB01DC0101900D920020E1F70895BB
:041AF000F894FFCF98
:101AF4000000F903800000004000140054000000BE
:101B04000000D902430270022603A1027F0293025D
:101B1400000000001904EC032F05DE03E503E203D3
:101B2400DF0300000000400643022F0577035265DF
:101B3400666C6563743A20004F626A6563743A2088
:101B4400002C205265666C656374696F6E3A2000E0
:101B54000D0A004F626A656374204465746563749A
:101B6400696F6E004D6574616C6C6963204F626AC5
:101B740065637400506C6173746963204F626A65B5
:101B8400637400556E6B6E6F776E204F626A656387
:021B94007400DB
:00000001FF
